:020000040800F2
:1000000068070020A50F0008F9020008FB0200089D
:10001000FF020008030300080703000800000000B7
:100020000000000000000000000000000B030008BA
:100030000D03000800000000BB0F0008BD0F000802
:10004000BF0F0008BF0F0008BF0F0008BF0F000858
:10005000BF0F0008BF0F0008BF0F0008BF0F000848
:10006000910C0008B10C0008BF0F0008BF0F00087A
:10007000BF0F0008BF0F0008BF0F0008BF0F000828
:10008000BF0F0008BF0F0008BF0F0008BF0F000818
:10009000BF0F0008BF0F0008BF0F0008BF0F000808
:1000A000BF0F0008BF0F0008BF0F0008BF0F0008F8
:1000B000BF0F0008BF0F0008BF0F0008BF0F0008E8
:1000C000BF0F0008BF0F0008BF0F0008BF0F0008D8
:1000D000BF0F0008AD0E0008BF0F0008BF0F0008DB
:1000E000BF0F0008BF0F0008BF0F0008BF0F0008B8
:1000F000BF0F0008BF0F0008BF0F0008BF0F0008A8
:10010000BF0F0008BF0F0008BF0F0008BF0F000897
:10011000BF0F0008BF0F0008BF0F0008BF0F000887
:10012000BF0F0008BF0F0008BF0F0008BF0F000877
:1001300000F002F800F03AF80AA090E8000C8244BF
:100140008344AAF10107DA4501D100F02FF8AFF29C
:10015000090EBAE80F0013F0010F18BFFB1A43F0A5
:10016000010318471C2600003C260000103A24BF5B
:1001700078C878C1FAD8520724BF30C830C144BF0C
:1001800004680C607047000000230024002500264E
:10019000103A28BF78C1FBD8520728BF30C148BFEA
:1001A0000B6070471FB51FBD10B510BD01F09FFD5E
:1001B0001146FFF7F7FF00F051F801F0BDFD03B461
:1001C000FFF7F2FF03BC00F013FE000010B500F0D3
:1001D00009FE00F0D7FC00F09BFD4FF4165000F034
:1001E00016FE00F057FC00F021FA00F0F3FC10BD01
:1001F0002DE9F14F84B00020039034480290002094
:100200000190049802F02AF806460022304B01F0D3
:1002100027FF80462F4A304B01F022FF0446002280
:100220002E4B01F0C5FD824601F090FD039003982E
:1002300002F014F880462A4A2A4B01F011FF0646C4
:100240000022294B01F0B4FD044601F07FFD01902E
:10025000019800F068FE05B0BDE8F08F2DE9F0418F
:100260000024002600250027FFF7B0FF06E000204D
:1002700000F035FC04460A2000F087FD002CF6D083
:1002800018E000F026FD80460021404602F080F88C
:100290000DD01649404602F0CBF808D2144940462A
:1002A00002F0C6F903D200201249086003E0C8201A
:1002B00000F06BFDE5E700BF00F01AF9054628469F
:1002C000FFF796FF0020BDE8F081000000002C42FF
:1002D00000803040CDCCCCCCCCCCEC3F0080764004
:1002E000AE47E17A14AED73F008045400000404061
:1002F000000040C0A0012142704700BFFEE700BFE0
:10030000FEE700BFFEE700BFFEE770477047000052
:100310000CB50020019000906C48006840F48030DB
:100320006A49086000BF6948006800F40030009026
:100330000198401C0190009818B90198B0F5A06F81
:10034000F1D16248006800F4003010B10120009043
:1003500001E0002000900098012843D15C4800682B
:1003600040F010005A4908600846006820F0030079
:1003700008600846006840F0020008605348406882
:10038000524948600846406848600846406840F462
:10039000806048600846406820F47C104860084649
:1003A000406840F4E81048600846006840F08070FB
:1003B000086000BF4548006800F000700028F9D0D0
:1003C0004248406820F003004049486008464068C1
:1003D00040F00200486000BF3C48406800F00C005C
:1003E0000828F9D10CBD10B5FFF792FF10BD10B56C
:1003F0003648006840F0010034490860084640680B
:10040000344908403149486008460068324908408C
:100410002E4908600846006820F4802008600846DD
:10042000406820F4FE0048604FF41F008860FFF72A
:10043000DAFF4FF000602949086010BD10B50021B7
:1004400000200022214B5B6803F00C0121B104293C
:1004500006D0082928D107E0214B224C236027E051
:100460001F4B204C236023E0184B5B6803F4701093
:10047000164B5B6803F48032022303EB904022B9F1
:10048000194B4343174C23600DE0104B5B6803F49A
:10049000003323B1144B4343124C236003E0104B51
:1004A0004343104C236003E00D4B0E4C236000BF10
:1004B00000BF064B5B68C3F303130C4CE15C094BB4
:1004C0001B68CB40074C236010BD000000100240A9
:1004D000002002400000FFF8FFFFF6FE08ED00E0FC
:1004E00000127A000000002000093D0004000020F6
:1004F0002DE9F05F4FF0000900270024A246A04636
:100500000026A34606E0002000F0E9FA07460A208C
:1005100000F03BFC002FF6D04FF47A7000F035FC71
:1005200076E000F0D6FB064671E000F0D2FB06460E
:100530003146384801F07CFF18D23749304601F087
:1005400077FF13D2651CE81705EB5070C010A5EBC0
:10055000C000C0B204460146232000F0C5F84FF0A9
:100560007E51404601F0A6FE804650E031462A48C2
:1005700001F05EFF1BD22949304601F059FF16D227
:10058000651CE81705EB5070C010A5EBC000C0B2A9
:1005900004460146232000F0A7F84FF07E51404664
:1005A00001F088FE8046962000F0EFFB2FE04FF42C
:1005B000FA6000F0EAFB29E000F08BFB06461849E0
:1005C000304602F035F80AD21649304601F030FFC5
:1005D00005D20020144908604046BDE8F09F651C24
:1005E000E81705EB5070C010A5EBC000C0B2044680
:1005F0000146282000F078F84FF07E51404601F087
:1006000059FE80464FF47A6000F0BFFBD4E78CE7D8
:1006100087E700000000C8C1000088C1000040C199
:100620000000A0C00000A0408881224208B501213E
:10063000042000F0F3FF10208DF8030003208DF854
:1006400002000120ADF800006946FC4800F02AFDD8
:100650000220ADF800006946F84800F023FD0420B0
:10066000ADF800006946F54800F01CFD0820ADF823
:1006700000006946F14800F015FD1020ADF80000BB
:100680006946EE4800F00EFD2020ADF800006946F6
:10069000EA4800F007FD4020ADF800006946E74851
:1006A00000F000FD8020ADF800006946E34800F04E
:1006B000F9FC08BD0020E2490860E249C1F89C014C
:1006C000DF4908310860DF49C1F8A4017047002004
:1006D000DD490860DD49C1F88801DB49083108605F
:1006E000DA49C1F89001704770B505460C46082CF0
:1006F0001ED2DFE804F0041E37546E88A2BF01202A
:10070000D149091F08600020D049C1F88401CE49B1
:10071000091D08600120091D0860091D08600020EE
:10072000091D0860091D08600120C849C1F89C0125
:10073000B9E00020C449091F0860C449C1F8840118
:10074000C149091D08600120091D08600020091D1C
:100750000860091D0860091D08600120BB49C1F837
:100760009C01A0E00020B849091F08600120B7499A
:10077000C1F884010020B449091D08600120091D49
:1007800008600020091D08600120091D0860002084
:10079000091D08600120AD49C1F89C0183E00020DB
:1007A000A949091F08600120A849C1F88401002057
:1007B000A549091D0860091D0860091D0860012080
:1007C000091D08600020091D0860A049C1F89C01AE
:1007D00069E000209C49091F086001209B49C1F87D
:1007E00084019949091D08600020091D0860091D40
:1007F00008600120091D0860091D08600020934958
:10080000C1F89C014FE000208F49091F08608F4903
:10081000C1F8840101208C49091D08600020091DD0
:100820000860091D0860091D08600120091D086095
:1008300000208649C1F89C0135E001208249091F4A
:10084000086000208149C1F8840101207E49091D0A
:1008500008600020091D08600120091D08600020B3
:10086000091D08600120091D086000207749C1F8B2
:100870009C0118E001207449091F08600020734999
:10088000C1F884017049091D0860091D0860012034
:10089000091D08600020091D0860091D08606B49DA
:1008A000C1F89C0100BF00BF284600F06EFA70BD81
:1008B00070B505460C46082C1DD2DFE804F0041D77
:1008C0003A546E88A5C901205F49091F08600020BD
:1008D0005E49C1F884015C49091D0860091D086072
:1008E0000120091D08600020091D0860091D08601D
:1008F0005649C1F89C01C4E001205349091F086012
:1009000000205249C1F8840101204F49091D0860A7
:100910000020091D08600120091D08600020091D34
:1009200008600120091D086000204849C1F89C01A9
:10093000A7E000204449091F08604449C1F8840128
:1009400001204149091D08600020091D0860091D9A
:100950000860091D08600120091D086000203B494E
:10096000C1F89C018DE000203749091F0860012073
:100970003649C1F884013449091D08600020091D69
:100980000860091D08600120091D0860091D086034
:1009900000202E49C1F89C0173E000202A49091F5C
:1009A000086001202949C1F8840100202649091D59
:1009B0000860091D0860091D08600120091D086004
:1009C0000020091D08602149C1F89C0159E0002060
:1009D0001D49091F086001201C49C1F8840100203D
:1009E0001949091D08600120091D08600020091D22
:1009F00008600120091D08600020091D0860012011
:100A00001249C1F89C013CE000200F49091F086011
:100A10000E49C1F884010C49091D08600120091D17
:100A200008600020091D0860091D0860091D086094
:100A300001200649C1F89C0123E0000000080140A4
:100A400098012242000022428401214200002142FA
:100A500001200E49086000200D49C1F884010B49AE
:100A6000083108600120091D0860091D0860002088
:100A7000091D0860091D086001200549C1F89C0195
:100A800000BF00BF284600F080F970BD8001214200
:100A90000000214208B50121142000F0BFFD4FF4F1
:100AA0000040ADF8000048208DF803006946324848
:100AB00000F0F8FA2020ADF8000048208DF803007F
:100AC00069462E4800F0EEFA0120ADF8000028201B
:100AD0008DF803006946284800F0E4FA08BD10B517
:100AE000044614B10120264908702548007868B3EF
:100AF0002021224800F069FB58B14FF400411E4804
:100B000000F063FB28B101211B4800F05EFB0128C7
:100B10001CD10A2000F039F9002019490870202161
:100B2000164800F052FB08B9012010BD4FF40041F7
:100B3000114800F04AFB08B90220F6E701210E48EF
:100B400000F043FB012815D10320EEE720210B48DC
:100B500000F03BFB01280DD1C103074800F035FB35
:100B6000012807D10121044800F02FFB10B9012012
:100B7000034908700020D8E7000801400010014038
:100B80001400002008B50121242000F047FD4FF497
:100B90008070ADF8000010208DF8030003208DF860
:100BA00002006946094800F07DFA4FF48071074859
:100BB00000F025FB0420ADF800006946044800F071
:100BC00071FA0421024800F01AFB08BD0008014038
:100BD000001401401FB50121102000F01FFD01216C
:100BE000084600F01BFD48208DF80F0003208DF80B
:100BF0000E000420ADF80C0003A9404800F052FAA2
:100C00000820ADF80C0003A93C4800F04BFA022183
:100C1000084600F05DFB0420019000208DF80800DC
:100C200008208DF8090001208DF80A0001A800F0C5
:100C3000D9FF08208DF8000002208DF80100012066
:100C40008DF802008DF80300684600F054FF032180
:100C5000022000F03DFB0820019000208DF80800E4
:100C600008208DF8090001208DF80A0001A800F085
:100C7000B9FF09208DF8000002208DF801008DF8E1
:100C8000020001208DF80300684600F034FF1FBD0C
:100C900010B51B48006838B94FF07E5119480068FC
:100CA00001F008FB17490860042001F012F810BD9C
:100CB00010B51348001F006838B94FF07E51114835
:100CC000006801F0E7FC0F490860082001F001F816
:100CD00010BD2DE9F0470B48006801F0BFFA064649
:100CE0000022094B01F064F804460022074B01F092
:100CF000B7F9804601F02AF8BDE8F08700100140FE
:100D00000C01224218000020000090400080764034
:100D100010B56FF0040000F038FF2E4800682E492F
:100D2000B0FBF1F02D4908700846007800EB400157
:100D3000C1EBC0104FF6FF7101EAC00028490880DE
:100D400010BD0146254A12784A434FF0E0235A610C
:100D500000229A611A46126942F001021A6100BF2C
:100D60004FF0E022106900F001021AB100F4803265
:100D7000002AF5D04FF0E022126922F001024FF074
:100D8000E0231A6100229A6170470146144A1288D2
:100D90004A434FF0E0235A6100229A611A461269D1
:100DA00042F001021A6100BF4FF0E022106900F02A
:100DB00001021AB100F48032002AF5D04FF0E0228F
:100DC000126922F001024FF0E0231A6100229A61B9
:100DD000704700000000002000127A001C00002074
:100DE0001E00002010B54FF4A06000F07FFE10BD83
:100DF000014600BF704700BF654A128802F04002FA
:100E0000002AF9D0C2B2624B1B1D1A80704710B580
:100E100086B00446012144F2040000F0FFFB5C4868
:100E200000F060FC4FF40070ADF8140003208DF862
:100E3000160018208DF8170005A9564800F032F961
:100E40004FF48060ADF8140004208DF8170005A958
:100E5000504800F027F925208DF8000003208DF878
:100E600001008DF8020001208DF80300684600F0B3
:100E700042FE01940020ADF80800ADF80A00ADF87C
:100E80000C00ADF810000C20ADF80E0001A9404890
:100E900000F06BFC012240F225513D4800F0FDFCC2
:100EA00001213B4800F0EDFC06B010BD10B540F24A
:100EB0002551374800F0D6FD10B3354800F052FDFB
:100EC000C4B23548008800F40040C8B932480088F0
:100ED00000F4804060B10A2C03D000202E49088025
:100EE00020E02D48008840F400402B49088019E09C
:100EF0000D2C06D12848008840F4804026490880FF
:100F000010E025480088C0F30D0024490C54224805
:100F10000088401C2049088008460088C72801DD59
:100F20000020088010BD2DE9FC4107461C493846C9
:100F300001F0B2FA0746384601F05EFA054604248D
:100F40000FE00A2095FBF0F100FB1150C6B22046DD
:100F5000611ECCB20DF800600A2095FBF0F505B9D2
:100F600000E0EEE700BF601CC4B20DE000BF08481F
:100F7000008800F040000028F9D01DF80400044962
:100F8000091D0880601CC4B2052CEFDBBDE8FC81A4
:100F90000038014000080140240000203C000020EF
:100FA00000007A440948804709480047FEE7FEE709
:100FB000FEE7FEE7FEE7FEE7FEE7FEE7FEE7FEE709
:100FC00004480549054A064B70470000EF03000836
:100FD0003101000868010020680700206803002034
:100FE0006803002010B50446CC48844208D1012192
:100FF000042000F02DFB0021042000F029FB46E036
:10100000C748844208D10121082000F021FB0021BB
:10101000082000F01DFB3AE0C248844208D10121BB
:10102000102000F015FB0021102000F011FB2EE035
:10103000BD48844208D10121202000F009FB002195
:10104000202000F005FB22E0B848844208D10121AD
:10105000402000F0FDFA0021402000F0F9FA16E0EF
:10106000B348844208D10121802000F0F1FA002128
:10107000802000F0EDFA0AE0AE48844207D1012159
:10108000801500F0E5FA0021A01500F0E1FA10BD8E
:1010900010B50121084600F0DBFA0021012000F024
:1010A000D7FA10BD2DE9F0410246002500260020A8
:1010B00000230024002791F803C00CF00F0591F8DD
:1010C00003C00CF0100CBCF1000F03D091F802C06B
:1010D0004CEA050591F800C0BCF1000F31D014684E
:1010E00000202BE04FF0010C0CFA00F3B1F800C027
:1010F0000CEA03069E4220D183004FF00F0C0CFA3D
:1011000003F7BC4305FA03FC4CEA040491F803C05E
:10111000BCF1280F06D14FF0010C0CFA00FCC2F80C
:1011200014C00AE091F803C0BCF1480F05D14FF09C
:10113000010C0CFA00FCC2F810C0401C0828D1D3E6
:101140001460B1F800C0BCF1FF0F34DD546800201A
:101150002EE000F1080C4FF0010808FA0CF3B1F88A
:1011600000C00CEA03069E4221D183004FF00F0C11
:101170000CFA03F7BC4305FA03FC4CEA040491F8AB
:1011800003C0BCF1280F05D100F1080C08FA0CF8D7
:10119000C2F8148091F803C0BCF1480F07D100F1E8
:1011A000080C4FF0010808FA0CF8C2F81080401C37
:1011B0000828CED35460BDE8F0814FF6FF7101805E
:1011C000022181700421C17070470246002093689B
:1011D0000B400BB1012000E00020704701468868F9
:1011E00080B2704702460020D3680B400BB101204B
:1011F00000E0002070470146C86880B27047016176
:101200007047416170470AB1016100E04161704778
:10121000C16070474FF480320A438261816182610C
:1012200082698269704702460020434B18684FF676
:101230008073184040EA021008433F4B1860704723
:101240003E49C8617047F0B50A46002300240021DA
:10125000002500F00046B6F1004F02D1364EF1698C
:1012600001E0354E7168C0F3034583B200F44016C7
:10127000B6F5401F08D121F070612F4E766826F038
:1012800070662D4F7E6012E000F48016B6F5801F68
:1012900006D1032606FA05F4A14341F0706106E089
:1012A000460D360103FA06F6B14341F0706122B1F2
:1012B000460D360103FA06F6314300F00046B6F15A
:1012C000004F02D11C4EF16101E01B4E7160F0BD78
:1012D00030B500228B071C0F0F2303FA04F2164BC4
:1012E00008338C1053F824309343134C08348D107A
:1012F00044F8253023468C1053F824308C07240FF3
:1013000000FA04F423430C4C08348D1044F82530C3
:1013100030BD0A49DC310860704700000008014018
:10132000000C014000100140001401400018014071
:10133000001C01400020014000000140000020424C
:10134000DF48006840F00100DD4908600846406859
:10135000DC490840DA49486008460068DA49084034
:10136000D74908600846006820F4802008600846D5
:10137000406820F4FE0048604FF41F00886070470A
:10138000CF49096821F48031CD4A116011460968BE
:1013900021F480211160B0F5803F03D0B0F5802F9B
:1013A0000ED106E0C649096841F48031C44A116093
:1013B00007E0C349096841F4A021C14A116000E077
:1013C00000BF00BF704710B5014600220023002077
:1013D0004A11012A02D1BA4C236806E0022A02D13E
:1013E000B74C236A01E0B64C636A01F01F02012486
:1013F00094401C400CB1012000E0002010BD38B525
:10140000002000900024002500BF3120FFF7DBFF03
:1014100005460098401C00900098B0F5A06F01D0E0
:10142000002DF2D03120FFF7CEFF08B1012400E0FB
:101430000024204638BD01460020A14A106820F053
:10144000F80040EAC10010607047A049086070478A
:10145000024600209A4B586820F47C1042EA0103AF
:101460001843974B58607047984908667047014683
:101470000020934A506820F00300084350607047F2
:101480008F48406800F00C007047014600208C4AED
:10149000506820F0F000084350607047014600207B
:1014A000874A506820F4E060084350607047014666
:1014B0000020834A506820F4605040EAC100506028
:1014C000704729B17E4A527A02437D4B5A7204E03A
:1014D0007B4A527A82437A4B5A7270477B49D831A1
:1014E0000860704701460020754A506820F440406B
:1014F0000843506070470021714A20321170704AD1
:1015000082F82010012802D004280AD104E0012129
:101510006B4A2032117005E00521694A20321170B2
:1015200000E000BF00BF7047694908607047644928
:10153000096A0143624A116270476549443908608B
:10154000704730B500210022002400235C4D6D68F7
:1015500005F00C0121B1042905D0082923D105E0AB
:101560005C4D056022E05B4D05601FE0544D6D68E9
:1015700005F47012524D6D6805F48034022505EBB8
:1015800092421CB9544D554305600BE04C4D6D68BB
:1015900005F400351DB1504D5543056002E04D4D39
:1015A0005543056002E04B4D056000BF00BF444D50
:1015B0006D6805F0F0010909484D6B5C0568DD4078
:1015C00045603F4D6D6805F4E061090A434D6B5C71
:1015D0004568DD4085603A4D6D6805F46051C90A83
:1015E0003E4D6B5C4568DD40C560354D6D6805F46A
:1015F0004041890B3A4D6B5CC568B5FBF3F505615D
:1016000030BD29B12E4A526902432D4B5A6104E084
:101610002B4A526982432A4B5A61704729B1284AA2
:1016200092690243264B9A6104E0254A92698243FB
:10163000234B9A61704729B1214AD2690243204B5A
:10164000DA6104E01E4AD26982431D4BDA617047B9
:1016500029B11B4AD2680243194BDA6004E0184AE8
:10166000D2688243164BDA60704729B1144A126976
:101670000243134B1A6104E0114A12698243104B72
:101680001A61704712494039086070470F49C864B1
:1016900070470B49C87170470948406A40F0807034
:1016A00007494862704701460020054A92680A408F
:1016B0000AB1012000E0002070470149887270479C
:1016C000001002400000FFF8FFFFF6FE000042425B
:1016D0008004424200127A0000093D0026000020EA
:1016E0003600002010B50446FB48844209D1012190
:1016F0008803FFF7ADFF00214FF48040FFF7A8FFFC
:1017000032E0F648844209D101214804FFF7ADFFD9
:1017100000214FF40030FFF7A8FF25E0F048844295
:1017200009D101218804FFF7A0FF00214FF4802098
:10173000FFF79BFF18E0EB48844209D10121C80460
:10174000FFF793FF00214FF40020FFF78EFF0BE01F
:10175000E548844208D101210805FFF786FF0021F2
:101760004FF48010FFF781FF10BD2DE9F04786B0E0
:1017700005460E460024A24600BFA1460027B089B8
:1017800000B100BF2F462C8A4CF6FF700440F08851
:1017900004432C82AC894EF6F3100440B0883189A2
:1017A0000843718908430443AC81AC8A4FF6FF407B
:1017B0000440B0890443AC8201A8FFF7C2FEC648CA
:1017C000874202D1DDF810A001E0DDF80CA0A88965
:1017D00000F4004040B10AEBCA0000EB0A10316887
:1017E0004900B0FBF1F807E00AEBCA0000EB0A1071
:1017F00031688900B0FBF1F86420B8FBF0F0040117
:101800002009642101FB1089A88900F4004040B13F
:10181000322000EBC900B0FBF1F000F007000443F8
:1018200008E0322000EB09106421B0FBF1F000F079
:101830000F0004432C8106B0BDE8F0874FF4165129
:10184000016000218180C18001810C214181002142
:101850008181704710B502460020108A4FF2FF03C5
:1018600018400B884C8823438C882343CC8823431F
:101870001843108210BD0021018041808180C18009
:10188000704721B1828942F40052828104E082894A
:101890004DF6FF731A4082817047F0B5034600246D
:1018A00000260025002040F66A17B94200D100BF8B
:1018B0001846C1F3421401F01F06012707FA06F586
:1018C000012C01D10C3004E0022C01D1103000E0D9
:1018D00014301AB107682F43076002E00768AF436E
:1018E0000760F0BD1AB1838A0B43838202E0838ACA
:1018F0008B4383827047028A4FF6F0731A4002824C
:10190000028A0A430282704782894FF2FF731A40AB
:10191000828182890A438281704721B1828942F0A3
:101920000202828104E082894FF6FD731A408281AF
:101930007047028A4FF6DF731A400282028A0A4316
:101940000282704721B1028A42F48042028204E09E
:10195000028A4BF6FF731A4002827047C1F30802F5
:101960008280704701468888C0F3080070478189EB
:1019700041F0010181817047028BD2B20283028B58
:1019800042EA012202837047028B02F47F42028303
:10199000028B0A430283704721B1828A42F02002FF
:1019A000828204E0828A4FF6DF731A408282704797
:1019B00021B1828A42F01002828204E0828A4FF6CC
:1019C000EF731A408282704721B1828A42F0080286
:1019D000828204E0828A4FF6F7731A40828270474F
:1019E00021B1828942F40042828103E08289C2F3FC
:1019F0000E028281704721B1828A42F400628282A3
:101A000004E0828A4FF2FF731A4082827047828A12
:101A10004FF6FB731A408282828A0A4382827047A1
:101A200021B1828A42F00202828204E0828A4FF669
:101A3000FD731A408282704702460020B1F5007F94
:101A400000D100BF13880B400BB1012000E0002043
:101A5000704701F40072B2F5007F00D100BFCA43A5
:101A60000280704770B50246002400230025002044
:101A700040F66A16B14200D100BFC1F3421501F031
:101A80001F03012606FA03F3012D02D19689334084
:101A900006E0022D02D1168A334001E0968A3340D7
:101AA0000C12012606FA04F41688344013B10CB166
:101AB000012000E0002070BD10B50022002340F698
:101AC0006A14A14200D100BF0A1201249440A3B2BB
:101AD000DC43048010BD0000003801400044004099
:101AE00000480040004C0040005000403149014394
:101AF000314A1160704770B5002100230F22C4786D
:101B000004B32D4C246804F4E064C4F5E064210AB5
:101B1000C1F10403CA40447804FA03F18478144004
:101B200021430901254C0678A155047804F01F05CE
:101B30000124AC4005786D11AD0005F1E025C5F834
:101B4000004109E0047804F01F050124AC401C4D5D
:101B50000678761145F8264070BD1A4A0A400243BD
:101B6000154B1B1F1A60704739B1134A121D1268BA
:101B70000243114B1B1D1A6006E00F4A121D12682A
:101B800082430D4B1B1D1A607047042808D14FF08B
:101B9000E021096941F004014FF0E022116107E002
:101BA0004FF0E021096921F004014FF0E0221161BA
:101BB000704700000000FA050CED00E000E400E0D2
:101BC00080E100E080FFFF1F002044490860091DFC
:101BD0000860091D0860091D086041483F4914312B
:101BE0000860704700213D498279002A3AD00A46B0
:101BF000126803689A430B461A600A1D126803684C
:101C00009A430B1D1A60027911440A6803681A434B
:101C10000A60324A0832126803689A432F4B08332D
:101C20001A601A1D126803689A432C4B0C331A6011
:101C30004279102A0ED11A1F126803681A43274BE3
:101C400008331A601A1D126803681A43234B0C33B9
:101C50001A600DE02149427911440A6803681A4369
:101C60000A6005E0027911440A6803689A430A6031
:101C700070470021016001710C21417100218171C7
:101C800070471649103109680143144A1032116037
:101C9000704701460020114A143212680A400AB106
:101CA000012000E0002070470C49143108607047A3
:101CB000014600200022094B1B6803EA0102074B82
:101CC00014331B680B4013B10AB1012000E000205F
:101CD0007047024914310860704700000004014059
:101CE000FFFF0F0070477047704770477047754699
:101CF00000F028F8AE4605006946534620F007007C
:101D0000854618B020B5FFF75BF9BDE820404FF0DD
:101D100000064FF000074FF000084FF0000B21F0D5
:101D20000701AC46ACE8C009ACE8C009ACE8C009A2
:101D3000ACE8C0098D4670470446AFF300802046EA
:101D4000FEF73DFA004870470401002021F00042F0
:101D5000A2F16052B2F5801F01F0004328BFD2F11A
:101D60007F6C0BD95FEA001C43EAC20242EB507061
:101D700018BF704728BF20F001007047B2F5801FE0
:101D8000BCBF184670474FEA410C1CF5001F02D239
:101D9000084600F048BC70B500F00CFA000000895D
:101DA000FFF7F6BF4FF00040A0F58000704700003D
:101DB0002DE9C04130B4DFF8A0C23CEA111418BFCD
:101DC0003CEA131400F0EC8081EA03051CEA1114CC
:101DD00044EAD57418BF1CEA131500F0C780A4EBC1
:101DE00005044FF0004545EAC12145EAC32341EA15
:101DF000505143EA525304F17F74994204F5003480
:101E00004FEAC0204FEAC22208BF904200F09C80F7
:101E10004FEA13650FF24016765D4FEA134506FB55
:101E200005F7C7F1807706FB07F74FEAD737A7FB1F
:101E300003687642C8F58038A7FB06CE38BFA8F104
:101E4000010807FB08E64FF0000EA6FB028CE6FB3C
:101E500003CEDCF1000CCEF1004E38BFAEF1010E26
:101E6000A6FB0C584FF000074FF00005E6FB0E876D
:101E7000A1FB08C6A0FB07CE16EB0E0645F1000538
:101E8000E1FB076515F1E04E7EBFA4F580345FEA03
:101E900046066D4116F1800745F100054FEA172708
:101EA0004FEA066647EA0567A6F1DE46B6F1805FAF
:101EB0004FEA15251FD9384624F0010C05EBC471F3
:101EC000BCF1FE6F01EB0C1102D8F0BCBDE8008143
:101ED00024425CBF01F5801E9EEAC47F02D4F0BCA0
:101EE000BDE80081244238D4F0BCA1F1C041BDE876
:101EF000004100F0ADB94FEAD22242EA43524FEA24
:101F0000D323A7FB02864FEAD02040EA415007FBCB
:101F100003661EEA0E0F4FEAD12105FB026658BF89
:101F2000A6EB0056B6EB00564FEA520E4EEAC37EC1
:101F300018EB0E0E56EB530EBDD518EB02085E41A2
:101F40007F1C55F10005B6E74FF480154FF00007F0
:101F50004FF000064FF00008ADE7F0BC4FF0000076
:101F600001F1C04101F00041BDE8008111EA0C1F00
:101F70000CEA131500D00CE013EA0C1F00F02580CA
:101F80004FF00000F0BC81EA030101F00041BDE820
:101F90000081F0BC81EA0301BDE8004100F058B9BE
:101FA000F0BCBDE8004170B500F004F9097EFC3ECC
:101FB00000F007B881EA03014FF0000001F0004192
:101FC000704781EA030100F043B9F0BC4FF0000014
:101FD0002249BDE800417047FFFDFBF9F7F5F4F237
:101FE000F0EEEDEBE9E8E6E4E3E1E0DEDDDBDAD8B4
:101FF000D7D5D4D3D1D0CFCDCCCBCAC8C7C6C5C412
:10200000C2C1C0BFBEBDBCBBBAB9B8B7B6B5B4B328
:10201000B2B1B0AFAEADACABAAA9A8A8A7A6A5A413
:10202000A3A3A2A1A09F9F9E9D9C9C9B9A999998D7
:102030009797969595949393929191908F8F8E8E7A
:102040008D8C8C8B8B8A8989888887878685858407
:1020500084838382828181800000FF070000F87FF3
:10206000DFF848C170B51CEA111E1EBF1CEA13152B
:102070009EEA0C0F95EA0C0F00F06F8081EA0304D2
:1020800023EA4C134EEAD47E21EA4C1141F480112C
:1020900043F48013AE44A1FB024CA0FB0365AEF1F8
:1020A0007F7E361955EB0C05A1FB034C4CF1000368
:1020B000A0FB021C16EB0C06654153F1000309421C
:1020C00018BF46F0010613F4007F0BD14FEA03312D
:1020D0004FEA0530340341EA155140EA16506FF0DB
:1020E00003020AE04FEAC3214FEAC520F40241EAA5
:1020F000555140EA56506FF0020202EB2E4201EBBE
:10210000025585EACE710AD05FEA440C18BF24F06C
:10211000004450F1000041F1000120EAD47040F287
:10212000FE7C624500D270BDA84214BF4FF08044CF
:102130004FF04044002E08BF0024BEF1806FA8BFBE
:10214000A1F1C041BDE8704080F282804FF00000F4
:1021500001F1C04101F0004170479EEA0C0F0CEA0A
:10216000131518BF95EA0C0F06D04FF0000081EA56
:10217000030E0EF0004170BD00F01CF88900013E16
:1021800000F007B800F009B84FEA430C5FEA5C5C66
:1021900008D081EA030100F05BB84FEA410C5FEA26
:1021A0005C5CF6D14FF00000014970470000FF076A
:1021B0000000F87F0EF1020E2EF0030E5EF8046BA5
:1021C000364205D4012A43EB030515F5001F12D84A
:1021D000012841EB010C1CF5001F0CD80ED14FEA71
:1021E000D17C15F5001F0CEB4C0C0CF1020C08BF58
:1021F0004CEBD37C04E04FF0080C01E04FEAD37CB9
:102200000CEB4C0526FA05F606F00706B6F1040CB1
:1022100006D20EEB860CBDE870404CF0010C604716
:10222000DFE80CF0090B02024FF000414FF0000014
:10223000A1F5002170BD19461046012851EB01049B
:1022400018BFD4F5001484BF002001F0004170BD18
:102250000808A0F500114FEA3101704743004FEA2A
:10226000D30C4FEA3C0C43401FBF40070CF16051B8
:1022700013F0FE4F70471CF0006F03D100200CF0EC
:10228000004170470CF0004343EA507010B540EA3B
:10229000CC0000F082F900BF000000924FEA00017C
:1022A000FFF7D6BF4FF000414FF00000A1F500212D
:1022B0007047000090EA010F48BF81F0004100F133
:1022C000F081421A3CBF801A89184FEAD0524FF071
:1022D0007F4C1CEA410FA2EBD15318BF9CEA026F5E
:1022E00000F03B804FF0004C4CEA00204CEA01210A
:1022F00021FA03FC10EB0C0C1ED202F1FF325FEA54
:102300001C2040EBC25038BF70471CF07F0F4FEAD3
:10231000400C18BFBCF17F4F38BF7047C3F120039A
:10232000994008BF20F00100BCF17F4F38BF7047D3
:10233000A0F1C04000F077B94FEA3C00000A40EB42
:10234000C25028BF1CF0FF0F4FEA400CE6D018BF68
:10235000BCF17F4F38BF7047EAE79CEA026F05D0B7
:1023600010EA5C0F08BF00F00040704710B500F0A5
:1023700014F900BF64FBBE3E401058BFC0F140409E
:10238000491058BFC1F140418142EFF300807047CE
:1023900050EA010C00F113801CF5000F58BFBCF58A
:1023A000000F01D48842704707D710F5000F58BFBF
:1023B00011F5000F15D488427047894270471CF50B
:1023C000000F04D5BCF5000FF7D5814270474FF0E0
:1023D000807C1CEB400F38BF1CEB410F01D28142C7
:1023E000704710B500F0D9F8922449004FF0005022
:1023F0004FF08051FFF7C0BF41000B0ED3F19E029A
:1024000008D950F400034FEA032323FA02F048BF2F
:102410004042704710B500F0C0F800BF49922480D8
:10242000002070476FF0004282EA200070470000F1
:1024300050EA010C00F113801CF5000F58BFBCF5E9
:10244000000F01D48842704707D710F5000F58BF1E
:1024500011F5000F15D488427047894270471CF56A
:10246000000F04D5BCF5000FF7D5814270474FF03F
:10247000807C1CEB400F38BF1CEB410F01D2814226
:10248000704710B500F089F8922449004FF00050D1
:102490004FF08051FFF770BF4FF47F0C1CEAD01251
:1024A0001EBF1CEAD11392EA0C0F93EA0C0F00F046
:1024B000478090EA010F48BF42F480724FF0004C11
:1024C0004CEA00204CEA012102EB0302A0FB0113BD
:1024D000A2F50002002918BF43F001035B0028BFEA
:1024E0004FEA330342EB22425FEA132C4CEBC2501B
:1024F0002EBFBCEB436FB2F57C0F70474FEA036C05
:10250000BCF1004F08BF20F00100B2F57C0F38BFCE
:1025100070470BD582F0FF0212F5803FC8BF7047AD
:1025200000F1C040D8BF00F00040704700F5000C3B
:102530005FEA4C0C48BF7047B0F1C04000F073B880
:1025400090EA010F0CEAD11348BF42F48072624551
:1025500038BF634504D280EA010000F000407047B4
:1025600010B500F01AF800BF8900013E00F007B86E
:1025700000F009B85FEA410C5FEA1C6C08D080EA01
:10258000010000F050B85FEA400C5FEA1C6CF6D125
:102590004FF00040A0F5800070470EF1020E2EF0C3
:1025A000030E5EF8044B244204D44FEA4102B2F118
:1025B0007F4F11D84FEA4003B3F17F4F0CD80ED1B3
:1025C0004FEAD07CB2F17F4F0CEB4C0C0CF1020CBB
:1025D00008BF4CEBD17C04E04FF0080C01E04FEA5F
:1025E000D17C0CEB4C0324FA03F404F00704B4F19F
:1025F000040C06D20EEB840CBDE810404CF0010C2C
:102600006047DFE80CF0070802024FF00040A0F539
:10261000800010BD0846420018BFD2F1807288BF0A
:1026200000F0004010BDFF2141EAD050C0057047C6
:1026300051EA000C00F113801CF5000F58BFBCF5E7
:10264000000F01D48142704707D711F5000F58BF22
:1026500010F5000F15D481427047894270471CF570
:10266000000F04D5BCF5000FF7D5884270474FF036
:10267000807C1CEB410F38BF1CEB400F01D288421D
:10268000704780EA010081EA000180EA0100FFF75B
:10269000F8BE000090EA010F48BF81F000413FF50D
:1026A00010AE421A04D882F00042A0EB020011449E
:1026B0004FEAD0524FF07F4C1CEA410FA2EBD153AE
:1026C00018BF9CEA026F4AD04FF0004C4CEA002041
:1026D0004CEA012121FA03FCB0EB0C0C0FD412F0F0
:1026E000FE0F36D05FEA4C001DD5001240EBC25001
:1026F00038BF70471CF03F0F18BF70470BE0A2F1C6
:1027000001025FEA1C2040EBC25038BF70471CF04A
:102710007F0F18BF7047C3F12003994014BF401EBC
:1027200020F00100704780084FEA122308BF70476D
:10273000B0FA80FCA2EB0C02CCF1280C60FA0CF091
:1027400093EA122F04BF00EBC25070474FEAC370E8
:102750007047130A5FEADC1008BF7047F6E79CEA8F
:10276000026F04D010EA5C0F08BF0020704710B55C
:10277000FFF713FF40DFF63E81F000407047000096
:10278000A0270008000000203C0000006C010008A9
:10279000DC2700083C0000202C070000880100080E
:1027A00000A24A040000000000000000010203042F
:1027B00006070809010000000000000000000000FA
:1027C00000000000000000000000010203040102FC
:0C27D000030406070809020406080000C4
:0400000508000131BD
:00000001FF
